{
  "contractName": "Idea",
  "abi": [
    {
      "anonymous": false,
      "inputs": [
        {
          "indexed": true,
          "internalType": "address",
          "name": "previousOwner",
          "type": "address"
        },
        {
          "indexed": true,
          "internalType": "address",
          "name": "newOwner",
          "type": "address"
        }
      ],
      "name": "OwnershipTransferred",
      "type": "event"
    },
    {
      "inputs": [],
      "name": "owner",
      "outputs": [
        {
          "internalType": "address",
          "name": "",
          "type": "address"
        }
      ],
      "stateMutability": "view",
      "type": "function",
      "constant": true
    },
    {
      "inputs": [],
      "name": "renounceOwnership",
      "outputs": [],
      "stateMutability": "nonpayable",
      "type": "function"
    },
    {
      "inputs": [
        {
          "internalType": "address",
          "name": "newOwner",
          "type": "address"
        }
      ],
      "name": "transferOwnership",
      "outputs": [],
      "stateMutability": "nonpayable",
      "type": "function"
    },
    {
      "inputs": [],
      "name": "getIdea",
      "outputs": [
        {
          "internalType": "string",
          "name": "",
          "type": "string"
        }
      ],
      "stateMutability": "view",
      "type": "function",
      "constant": true
    },
    {
      "inputs": [
        {
          "internalType": "string",
          "name": "_newIdea",
          "type": "string"
        }
      ],
      "name": "setIdea",
      "outputs": [],
      "stateMutability": "nonpayable",
      "type": "function"
    }
  ],
  "bytecode": "0x60806040526040518060400160405280601281526020017f4d7920616d617a696e67206964656121212100000000000000000000000000008152506001908051906020019061004f92919061014a565b5034801561005c57600080fd5b5061007961006e61007e60201b60201c565b61008660201b60201c565b61024e565b600033905090565b60008060009054906101000a900473ffffffffffffffffffffffffffffffffffffffff169050816000806101000a81548173ffffffffffffffffffffffffffffffffffffffff021916908373ffffffffffffffffffffffffffffffffffffffff1602179055508173ffffffffffffffffffffffffffffffffffffffff168173ffffffffffffffffffffffffffffffffffffffff167f8be0079c531659141344cd1fd0a4f28419497f9722a3daafe3b4186f6b6457e060405160405180910390a35050565b8280546101569061021c565b90600052602060002090601f01602090048101928261017857600085556101bf565b82601f1061019157805160ff19168380011785556101bf565b828001600101855582156101bf579182015b828111156101be5782518255916020019190600101906101a3565b5b5090506101cc91906101d0565b5090565b5b808211156101e95760008160009055506001016101d1565b5090565b7f4e487b7100000000000000000000000000000000000000000000000000000000600052602260045260246000fd5b6000600282049050600182168061023457607f821691505b60208210811415610248576102476101ed565b5b50919050565b6109fd806200025e6000396000f3fe608060405234801561001057600080fd5b50600436106100575760003560e01c8063450035471461005c578063715018a61461007a5780638da5cb5b14610084578063a51660a7146100a2578063f2fde38b146100be575b600080fd5b6100646100da565b6040516100719190610549565b60405180910390f35b610082610102565b005b61008c61018a565b60405161009991906105ac565b60405180910390f35b6100bc60048036038101906100b79190610710565b6101b3565b005b6100d860048036038101906100d39190610785565b610249565b005b606060016040516020016100ee91906108b2565b604051602081830303815290604052905090565b61010a610341565b73ffffffffffffffffffffffffffffffffffffffff1661012861018a565b73ffffffffffffffffffffffffffffffffffffffff161461017e576040517f08c379a000000000000000000000000000000000000000000000000000000000815260040161017590610915565b60405180910390fd5b6101886000610349565b565b60008060009054906101000a900473ffffffffffffffffffffffffffffffffffffffff16905090565b6101bb610341565b73ffffffffffffffffffffffffffffffffffffffff166101d961018a565b73ffffffffffffffffffffffffffffffffffffffff161461022f576040517f08c379a000000000000000000000000000000000000000000000000000000000815260040161022690610915565b60405180910390fd5b806001908051906020019061024592919061040d565b5050565b610251610341565b73ffffffffffffffffffffffffffffffffffffffff1661026f61018a565b73ffffffffffffffffffffffffffffffffffffffff16146102c5576040517f08c379a00000000000000000000000000000000000000000000000000000000081526004016102bc90610915565b60405180910390fd5b600073ffffffffffffffffffffffffffffffffffffffff168173ffffffffffffffffffffffffffffffffffffffff161415610335576040517f08c379a000000000000000000000000000000000000000000000000000000000815260040161032c906109a7565b60405180910390fd5b61033e81610349565b50565b600033905090565b60008060009054906101000a900473ffffffffffffffffffffffffffffffffffffffff169050816000806101000a81548173ffffffffffffffffffffffffffffffffffffffff021916908373ffffffffffffffffffffffffffffffffffffffff1602179055508173ffffffffffffffffffffffffffffffffffffffff168173ffffffffffffffffffffffffffffffffffffffff167f8be0079c531659141344cd1fd0a4f28419497f9722a3daafe3b4186f6b6457e060405160405180910390a35050565b828054610419906107e1565b90600052602060002090601f01602090048101928261043b5760008555610482565b82601f1061045457805160ff1916838001178555610482565b82800160010185558215610482579182015b82811115610481578251825591602001919060010190610466565b5b50905061048f9190610493565b5090565b5b808211156104ac576000816000905550600101610494565b5090565b600081519050919050565b600082825260208201905092915050565b60005b838110156104ea5780820151818401526020810190506104cf565b838111156104f9576000848401525b50505050565b6000601f19601f8301169050919050565b600061051b826104b0565b61052581856104bb565b93506105358185602086016104cc565b61053e816104ff565b840191505092915050565b600060208201905081810360008301526105638184610510565b905092915050565b600073ffffffffffffffffffffffffffffffffffffffff82169050919050565b60006105968261056b565b9050919050565b6105a68161058b565b82525050565b60006020820190506105c1600083018461059d565b92915050565b6000604051905090565b600080fd5b600080fd5b600080fd5b600080fd5b7f4e487b7100000000000000000000000000000000000000000000000000000000600052604160045260246000fd5b61061d826104ff565b810181811067ffffffffffffffff8211171561063c5761063b6105e5565b5b80604052505050565b600061064f6105c7565b905061065b8282610614565b919050565b600067ffffffffffffffff82111561067b5761067a6105e5565b5b610684826104ff565b9050602081019050919050565b82818337600083830152505050565b60006106b36106ae84610660565b610645565b9050828152602081018484840111156106cf576106ce6105e0565b5b6106da848285610691565b509392505050565b600082601f8301126106f7576106f66105db565b5b81356107078482602086016106a0565b91505092915050565b600060208284031215610726576107256105d1565b5b600082013567ffffffffffffffff811115610744576107436105d6565b5b610750848285016106e2565b91505092915050565b6107628161058b565b811461076d57600080fd5b50565b60008135905061077f81610759565b92915050565b60006020828403121561079b5761079a6105d1565b5b60006107a984828501610770565b91505092915050565b7f4e487b7100000000000000000000000000000000000000000000000000000000600052602260045260246000fd5b600060028204905060018216806107f957607f821691505b6020821081141561080d5761080c6107b2565b5b50919050565b600081905092915050565b60008190508160005260206000209050919050565b60008154610840816107e1565b61084a8186610813565b945060018216600081146108655760018114610876576108a9565b60ff198316865281860193506108a9565b61087f8561081e565b60005b838110156108a157815481890152600182019150602081019050610882565b838801955050505b50505092915050565b60006108be8284610833565b915081905092915050565b7f4f776e61626c653a2063616c6c6572206973206e6f7420746865206f776e6572600082015250565b60006108ff6020836104bb565b915061090a826108c9565b602082019050919050565b6000602082019050818103600083015261092e816108f2565b9050919050565b7f4f776e61626c653a206e6577206f776e657220697320746865207a65726f206160008201527f6464726573730000000000000000000000000000000000000000000000000000602082015250565b60006109916026836104bb565b915061099c82610935565b604082019050919050565b600060208201905081810360008301526109c081610984565b905091905056fea2646970667358221220f1eb0cc051cf1a185b661226ab1483f28dd475e2c8cf88ce79fcf3c5e0f9aa9164736f6c634300080a0033",
  "immutableReferences": {},
  "source": "// SPDX-License-Identifier: MIT\npragma solidity >=0.4.22 <0.9.0;\n\nimport \"@openzeppelin/contracts/access/Ownable.sol\";\n\n// We can save amazing ideas!\ncontract Idea is Ownable {\n  string private _idea = \"My amazing idea!!!\";\n\n  function getIdea() external view returns (string memory) {\n    return string(abi.encodePacked(_idea));\n  }\n\n  function setIdea(string memory _newIdea) external onlyOwner {\n    _idea = _newIdea;\n  } \n}\n",
  "sourcePath": "/Users/ishka/work/web3/test-solidity/contracts/Idea.sol",
  "compiler": {
    "name": "solc",
    "version": "0.8.10+commit.fc410830.Emscripten.clang"
  },
  "schemaVersion": "3.4.3",
  "updatedAt": "2021-12-06T01:10:24.712Z",
  "networkType": "ethereum",
  "devdoc": {
    "kind": "dev",
    "methods": {
      "owner()": {
        "details": "Returns the address of the current owner."
      },
      "renounceOwnership()": {
        "details": "Leaves the contract without owner. It will not be possible to call `onlyOwner` functions anymore. Can only be called by the current owner. NOTE: Renouncing ownership will leave the contract without an owner, thereby removing any functionality that is only available to the owner."
      },
      "transferOwnership(address)": {
        "details": "Transfers ownership of the contract to a new account (`newOwner`). Can only be called by the current owner."
      }
    },
    "version": 1
  },
  "userdoc": {
    "kind": "user",
    "methods": {},
    "version": 1
  }
}